01222222222222222221  amengE0                         M42502659900010429000000077777772014010101010118655693074AAAAAAAAAA                                                                                          BBBBBBBBBB                                                                                                                                                                                              
01222222222222222222  amengE1                       M42502659900X10429000000077777772014010101010118655693074AAAAAAAAAA                                                                                          BBBBBBBBBB                                                                                                                                                                                              
01X22222222222222223  amengE2                       M42502659900010429000000077777772014010101010118655693074AAAAAAAAAA                                                                                          BBBBBBBBBB                                                                                                                                                                                              
01222222222222222224  amengE3                       MX2502659900010429000000077777772014010101010118655693074AAAAAAAAAA                                                                                          BBBBBBBBBB                                                                                                                                                                                              
01222222222222222225  amengE4                       M4250265990001042900X000007777772014010101010118655693074AAAAAAAAAA                                                                                          BBBBBBBBBB                                                                                                                                                                                              
X1222222222222222226  amengE5                       M42502659900010429000000077777772014010101010118655693074AAAAAAAAAA                                                                                          BBBBBBBBBB                                                                                                                                                                                              
01222222222222222227  amengE6                       X42502659900010429000000077777772014010101010118655693074AAAAAAAAAA                                                                                          BBBBBBBBBB                                                                                                                                                                                              
01222222222222222228  amengE7                       M4250265990001042900000007777777X014010101010118655693074AAAAAAAAAA                                                                                          BBBBBBBBBB                                                                                                                                                                                              
01222222222222222229  amengE8                       M42502659900010429000000077777772014010101010118655693074AAAAAAAAAA                                                                                          BBBBBBBBBB                                                                                                                                                                                              
01333333333333333330  amengE8                       M42502659900010429000000077777772014010101010118655693074AAAAAAAAAA                                                                                          BBBBBBBBBB                                                                                                                                                                                              
01333333333333333331  amengEA                       M42502659900010429000000077777772014010101010118655693074AAAAAAAAAA                                                                                          BBBBBBBBBB                                                                                                                                                                                              
01333333333333333331  amengEA                       M42502659900010429000000077777772014010101010118655693074AAAAAAAAAA                                                                                          BBBBBBBBBB                                                                                                                                                                                              
01333333333333333332  amengEB                       M42502659900010429000000077777772014010101010118655693074AAAAAAAAAA                                                                                          BBBBBBBBBB                                                                                                                                                                                              
01555555555555510001  n10001                        M42502659900010429000000077777772014010101010118655693074AAAAAAAAAA                                                                                          BBBBBBBBBB                                                                                                                                                                                              
01555555555555510002  n10002                        M42502659900010429000000077777772014010101010118655693074AAAAAAAAAA                                                                                          BBBBBBBBBB                                                                                                                                                                                              
01555555555555520001  n20001                        M42502659900010429000000077777772014010101010118655693074AAAAAAAAAA                                                                                          BBBBBBBBBB                                                                                                                                                                                              
01555555555555520002  n20002                        M42502659900010429000000077777772014010101010118655693074AAAAAAAAAA                                                                                          BBBBBBBBBB                                                                                                                                                                                              
01555555555555530001  n30001                        M42502659900010429000000077777772014010101010118655693074AAAAAAAAAA                                                                                          BBBBBBBBBB                                                                                                                                                                                              
01555555555555530002  n30002                        M42502659900010429000000077777772014010101010118655693074AAAAAAAAAA                                                                                          BBBBBBBBBB                                                                                                                                                                                              
